:020000040800F2
:10000000FFFF04209D0F0008A1030008A3030008C0
:10001000A5030008A7030008A903000800000000CA
:10002000000000000000000000000000A51D000806
:10003000AB030008000000003D1E0008AD030008EF
:10004000ED0F0008ED0F0008ED0F0008ED0F0008A0
:10005000ED0F0008ED0F0008ED0F0008ED0F000890
:10006000ED0F0008ED0F0008ED0F0008ED0F000880
:10007000ED0F0008ED0F0008ED0F0008ED0F000870
:10008000ED0F0008ED0F0008ED0F0008ED0F000860
:10009000ED0F0008ED0F0008ED0F0008D503000874
:1000A000ED0F0008ED0F0008ED0F0008ED0F000840
:1000B000ED0F0008ED0F0008ED0F0008ED0F000830
:1000C000ED0F0008ED0F0008ED0F0008ED0F000820
:1000D000ED0F0008ED0F0008ED0F0008ED0F000810
:1000E000ED0F0008ED0F0008ED0F0008ED0F000800
:1000F000ED0F0008ED0F0008ED0F0008ED0F0008F0
:10010000ED0F0008ED0F0008ED0F0008ED0F0008DF
:10011000ED0F0008ED0F0008ED0F0008ED0F0008CF
:10012000ED0F0008ED0F0008ED0F0008ED0F0008BF
:10013000DD030008ED0F0008ED0F0008ED0F0008CB
:10014000ED0F0008ED0F0008ED0F0008ED0F00089F
:10015000ED0F0008ED0F0008ED0F0008ED0F00088F
:10016000ED0F0008ED0F0008ED0F0008ED0F00087F
:10017000ED0F0008C5030008ED0F000800000000A7
:10018000ED0F0008ED0F0008ED0F0008ED0F00085F
:10019000ED0F0008ED0F0008ED0F0008ED0F00084F
:1001A000C9030008ED0F0008ED0F0008ED0F00086F
:1001B000ED0F0008ED0F0008ED0F0008ED0F00082F
:0801C000ED0F0008ED0F00082F
:1001C800044B05481B1A062B02D9044B03B11847E8
:1001D800704700BF1308002010080020000000002E
:1001E80005490648091A891001EBD171491002D056
:1001F800034B03B11847704710080020100800206F
:100208000000000010B5064C237843B9FFF7D8FF6B
:10021800044B13B10448AFF300800123237010BDD1
:1002280010080020000000006035010808B5084BE0
:100238001BB108490848AFF300800848036813B9A0
:10024800BDE80840CCE7064B002BF9D09847F7E704
:100258000000000014080020603501081008002084
:1002680000000000844641EA000313F003036DD147
:10027800403A41D351F8043B40F8043B51F8043B61
:1002880040F8043B51F8043B40F8043B51F8043B68
:1002980040F8043B51F8043B40F8043B51F8043B58
:1002A80040F8043B51F8043B40F8043B51F8043B48
:1002B80040F8043B51F8043B40F8043B51F8043B38
:1002C80040F8043B51F8043B40F8043B51F8043B28
:1002D80040F8043B51F8043B40F8043B51F8043B18
:1002E80040F8043B51F8043B40F8043B51F8043B08
:1002F80040F8043B403ABDD2303211D351F8043BA8
:1003080040F8043B51F8043B40F8043B51F8043BE7
:1003180040F8043B51F8043B40F8043B103AEDD256
:100328000C3205D351F8043B40F8043B043AF9D2A7
:10033800043208D0D2071CBF11F8013B00F8013B7A
:1003480001D30B8803806046704700BF082A13D387
:100358008B078DD010F003038AD0C3F10403D21A9F
:10036800DB071CBF11F8013B00F8013B80D331F8D3
:10037800023B20F8023B7BE7043AD9D3013A11F853
:10038800013B00F8013BF9D20B7803704B784370BE
:100398008B788370604670477047FEE7FEE7FEE79C
:1003A800FEE7704708B502F091FF01F0BDFA012899
:1003B80003D0BDE8084001F06FBD08BD70470000DC
:1003C800014803F034BA00BFE08602204FF4807081
:1003D80003F084B870470268262A02D1806807F0C3
:1003E8004DB908F0F7BA000007B507F075F9002312
:1003F800054A0221019300930346044806F05BF97D
:1004080003B05DF804FB00BFDF030008E4490608F9
:1004180008B50DF0FDFBBDE80840FFF7E5BF00009B
:1004280007B504F0ABF8002004F0D6FA4FF4887151
:100438004FF4D27004F0E0F80C4B002100911A6BD5
:1004480042F480521A631A6B02F480520092009AA6
:1004580001911A6B42F480221A631B6B03F4802308
:100468000193019B03B05DF804FB00BF0038024014
:1004780070B58CB001A804F015F9BDF806400BF072
:10048800CBF8A4B2844207DB0023ADF80630ADF800
:1004980010308DF8043006E0BDF810400BF0C4F8B9
:1004A800A4B28442F0DABDF80620214B92B2186853
:1004B8001C7A9042BDF80620BDF81010CCBF801AF7
:1004C800101A89B25A6880B28A42BDF81010CCBF9F
:1004D800521A8A1A9DF8041092B28C4203D11E282F
:1004E80001D81E2A21D99DF804200026104C1A7222
:1004F8005E729DF8043003F0FF0573B1BDF8063055
:1005080020469BB22360BDF810309BB263600CF0AC
:10051800DDFA304604F086FA07E020460CF0D6FAF9
:1005280028462560656004F087FA0CB070BD00BFEE
:100538002C080020704700004FF4003101480DF0EE
:100548003DBF00BFDC860020FFF792BF00220848AD
:1005580008B511460DF034F9042006F03FFEFFF708
:1005680057FF0CF0FDFD142001F0B6FAF9E700BFC3
:100578001C4A060882B0064A0190019B33B11368F1
:10058800DB03FAD5019B013B0193F6E702B0704704
:1005980010E000E010B5334806F05EFA3248334CFC
:1005A80006F058F86FF07F41002005F0C9FE6FF0A3
:1005B8007F41012005F0C4FE2146002005F0AAFE77
:1005C8002146012005F0A6FE294805F09DFE6FF0A2
:1005D8007F4005F0A9FE192005F0ACFE6FF07F40C2
:1005E80005F012FB6FF07F4005F0DAFD214601208F
:1005F80005F0CAFD2146012006F03AF821460220FE
:1006080005F0C2FD2146022006F032F8082005F068
:100618008FFD05F0F1FA204605F0CAFD6FF07F4026
:1006280005F0CEFD134805F0D3FD05F0BDF9002116
:10063800204605F085FD0121204605F081FD0221B7
:10064800204605F07DFD2F2006F08AF80A480DF0B7
:10065800A3FA204605F066FD0848BDE8104005F0FD
:100668005BBD00BF75670008A163000839A9DC00FD
:1006780030710508105B0608205406087C2503081D
:10068800F0B55E4C93B05E4E0025636A06A85D4ADD
:1006980023F480336362736823F0010373600123DA
:1006A800079211228DF818308DF8202003228DF83A
:1006B80026308DF823208DF827508DF825508DF899
:1006C80019508DF822508DF821508DF8245002F0E1
:1006D8007DFF05237360636A43F480336362636953
:1006E80043F480236361BFF34F8FBFF34F8FBFF392
:1006F8006F8FC4F85052636943F400336361BFF3EA
:100708004F8FBFF36F8FC4F88450BFF34F8FD4F867
:100718008020C2F34E33C2F3C902590143F6E07098
:100728000840114640EA817611F1FF31334DC4F893
:100738006062F7D213F1FF33EFD2BFF34F8F6B69CB
:1007480043F480336B61BFF34F8FBFF36F8F02F0B9
:10075800ABFD4FF480330225012707934FF4800344
:1007680006A806970D9319230C950E934FF4C8739A
:1007780010950F9302F078FA03F010FA044600B1CE
:10078800FEE70F23204E0621039001934FF4A05358
:1007980001A8029504934FF4805306AD059302F027
:1007A8003BFCFFF73DFE0FCE0FC53368214606A878
:1007B8002B6001F074F90DF067FA384606F080FEF8
:1007C800214638460CF050FA20460CF025FA20460F
:1007D8000CF0DCF90DF01CFAFFF7DCFE0B4B22469F
:1007E800394601A8019301F07FF9094B642118608B
:1007F80001F08AF901F04EF9FEE700BF00ED00E0D4
:1008080090ED00E00000012078350108510500084E
:10081800DC8602207047000013B5002402A840F8C7
:10082800084D01F0D5F9064B0121186002A840F8DF
:10083800044D01F0F9F9034B186002B010BD00BF78
:10084800380800203C080020014B186801F028BA3D
:1008580038080020024B4FF0FF31186801F0BCB98E
:100868003808002001F036B930B500284FF400757B
:100878000C480CBF002403240560C160C263049ABD
:100888000261059A0264C461BDF80C2042EA034380
:100898004364036843F0010303600368DB07FCD487
:1008A80030BD00BF00B002402DE9F0431C25104EBA
:1008B800DDF820E04543DDF824C0771956F80580B7
:1008C80056F80590FC68079D7F69CEEB040605FB8A
:1008D8000435734602FB041109960896CDF81CC02E
:1008E80007FB059207FB0181BDE8F043FFF7BCBF9A
:1008F800C40800202DE9F843089C05460E4690469A
:100908009946099F0CF0C8FB012811D10022192132
:1009180028460AF02DFE4A464146304623460AF04C
:10092800AFFF28461E4A1921BDE8F8430AF020BE49
:10093800C6EB09031B49002D03F101024FF01C030C
:1009480003FB05F318BF032501EB030EC958DEF8B6
:100958000C00DEF81030DEF808C04343DEF814E07F
:100968000EFB03F30CFB031100FB0863801A0EFB5C
:100978000316C8EB04030C4901330C4C9BB22160ED
:10098800A76343EA0243E6632064656363642368FC
:1009980043F0010323602368DB07FCD4BDE8F88338
:1009A800FD080008C40800200002030000B002404F
:1009B800F0B517461C220E4E85B04243B418E368C2
:1009C800D4F810E065690EFB03FC05FB0CF556F83E
:1009D80002C0B258002605FB01C105FB072202969A
:1009E8000196CDF800E0FFF73FFFA76005B0F0BD26
:1009F800C40800202DE9F045089C9C46079B0794F5
:100A08001C24124F4443099D07EB04083C59D8F8AD
:100A18000C70D8F8106002FB0712042106FB07FED1
:100A2800D8F81460D8F808A0FF1A06FB0EFE09973C
:100A38000AFB0E4495FBF1F5ED1A06FB02426146EE
:100A48000895BDE8F045FFF70FBF00BFC4080020B8
:100A58002DE9F0434D4C8DB000254D4808270E2652
:100A680001954FF48058636CDFF8389143F0806348
:100A78006364636C076003F080630193019BC02388
:100A880043610523C3614FF48033C36203F0C0F8A8
:100A9800029507A9236B3F4843F010032363236B98
:100AA80003F010030293029B0395236B43F040036A
:100AB8002363236B03F040030393039B0495236B89
:100AC80043F480732363236B03F480730493049BC0
:100AD8000595236B43F400732363236B03F40073BE
:100AE8000593059B0695236B43F480632363236B6F
:100AF800022403F4806308940693069B102307934B
:100B080009950A940B9602F0EFFB092307A92248DE
:100B1800CDF81C8008940B9302F0E6FB4FF4674372
:100B280007A94846089407930B9602F0DDFB4EF69A
:100B3800FF7307A91948079308940B9602F0D4FB92
:100B48000894F723164C07A9079320460B9602F042
:100B5800CBFBCDF81C804FF0010807A94846CDF81B
:100B6800208002F0C1FB07A920460797CDF8208016
:100B780002F0BAFB2A463146582002F0CDFC582034
:100B880002F002FD0DB0BDE8F08300BF003802405E
:100B980040080020001002400018024000240240D3
:100BA8000028024000200240044B5A6A42F080624A
:100BB8005A625A6A22F080625A62704700380240CC
:100BC8002DE9F047194D074600244FF01C09A846A7
:100BD8004FF0FF3A09FB04F308EB03067268002A9A
:100BE80019DBE868296958F80330414372682046E0
:100BF8004A43696901FB02333A6802F1840101EB57
:100C0800C4118B62536A43F00103536271680CF09C
:100C1800F5F9C6F804A001341C35022CDAD138469F
:100C28000021BDE8F04702F09FBF00BFC4080020C4
:100C3800F7B5664C0025204602F0ECFD2823204637
:100C480084F834506361092384F83550A36135234F
:100C580084F83650E3610B236560236240F21B136E
:100C6800A560A36240F21523E560636240F21D139C
:100C78002561236340F23523E362554B236002F07C
:100C880055FD2946204602F06FFF204602F0E6FE99
:100C9800504B01954FF480511A6B4F4842F40002B3
:100CA8001A6301221B6B03F400030193019B02F0FA
:100CB8000BFC01220821494802F006FC03212846C2
:100CC8000CF0B4F9032101200CF0B0F92B462A46A8
:100CD800434944480CF09AFE28460AF099FC044619
:100CE80060B14FF4F0724FF4887128460AF0CAFBDD
:100CF8004FF4F0724FF4887128460AE04FF4887276
:100D08004FF4F0710AF0BEFB4FF488724FF4F071A3
:100D180020460AF09FFB01230022334933480CF098
:100D280075FE01200AF074FC58B14FF4F0724FF4CC
:100D3800887101200AF0A6FB4FF4F0724FF4887115
:100D48000AE04FF488724FF4F07101200AF09AFB20
:100D58004FF488724FF4F0710120254D0AF07AFBA8
:100D6800244B00242E462B6003F50013224FEB6121
:100D780057F824304FF0FF312046AB611C23634302
:100D8800F2185160F1580AF04FFB20460AF034FC83
:100D98001A4AC0102121686120460AF0E9FB184A66
:100DA800232120460AF0E4FB164A192120460AF0BE
:100DB800DFFB2CB101341C35022CD9D103B0F0BDB6
:100DC800114A282120460AF0D3FBF3E7E0860220E7
:100DD800006801400038024000200240002802401C
:100DE80070700608C06E060888700608F46E06085B
:100DF800C4080020000020C0344A0608B9090008C9
:100E0800B1080008FD080008FD090008013930B5DF
:100E180004468FB015460D2900F2B380DFE801F0D3
:100E280007B13C535A607E7B6791B197A14C01286A
:100E380000F2A5800023554D4FF4F0704FF48871EF
:100E48009C42019303930CBF1A4603220793059211
:100E58001C228DF8343062438DF83530AA588DF84D
:100E680036304FF4C0630A92FF220893072302909A
:100E78000491069222460B900C9101A944480993CB
:100E880002F022FD20460AF0B7FB082877DC21464D
:100E98003F4802F0C9FD72E01C233C494343CA188D
:100EA800C8586968D3684B435169224601FB03015E
:100EB800374802F038FE62E01C233449126803FB0D
:100EC800001462605BE0034601222946304802F0C4
:100ED80040FD54E02E4B1A68936943F0010304E087
:100EE8002B4B1A68936923F00103936147E0136859
:100EF800C401274A012B1368126803F184031959A6
:100F08000CBF41F0010121F001011951536A43F06E
:100F18000103536233E0034606CA0EE001AA69469C
:100F28000BF066FE194A1C2303FB04232A68DA60C7
:100F38006A681A6123469DE80600154802F0A6FD76
:100F48001DE002462968124802F0CDFD17E0156839
:100F580001460F4815B102F033FD10E002F04AFDDA
:100F68000DE013681904C3F3074203F47F4301F447
:100F78007F01114302460648194302F0CEFC0020C7
:100F880001E04FF0FF300FB030BD00BFC4080020B3
:100F9800E0860220DFF834D0002103E00C4B5B58D8
:100FA800435004310B480C4B42189A42F6D30B4A73
:100FB80002E0002342F8043B094B9A42F9D300F0BF
:100FC80013F812F0E9F8FFF75BFB7047FFFF042006
:100FD8003C8C0608000000201008002010080020A3
:100FE80054890220FEE700000F490020D1F888301C
:100FF80043F47003C1F888300C4B1A6842F00102C0
:101008001A6098601A6822F0847222F480321A609A
:10101800074A5A601A6822F480221A60D8604FF092
:1010280000638B60704700BF00ED00E000380240AD
:1010380010300024064A13681968064B11B94FF09E
:10104800FF3203E01268D268D26852681A607047AB
:1010580010090020040000200E4B1A6810B55060DB
:1010680004460D4A1268904207D20C4A1068196863
:10107800BDE81040043101F0CEBD094A1068196876
:10108800043101F0C8FD074B1A68944200D21C6075
:1010980010BD00BF400A0020580A00205C0A00204A
:1010A80010090020040000202DE9F84F9A460C9BF7
:1010B80081460E4615460A9F3BB9900000F0F2FDA6
:1010C8008346002800F0B28000E09B465C2000F0D8
:1010D800E9FD044688B1AD00C0F830B0A5215846F6
:1010E8002A46043D12F016F9236B04F133021D441D
:1010F800731E0F3625F0070505E0584600F0FAFD87
:1011080094E09E4206D013F8011F02F8011F1978D7
:101118000029F6D10B2F4FF00008BB4604F1040656
:1011280028BF4FF00B0B84F843803046C4F850803A
:10113800C4F82CB0C4F84CB001F05EFD04F11800FE
:1011480001F05AFDCBF10C03C4F854805246A36158
:10115800494624612846646284F8588000F00EFEEF
:101168000B9B206003B11C6000F028FE314A324D11
:101178001368DFF8EC90013313602B683BBB2C60DD
:101188001268012A2BD1984609EB080008F11408C7
:1011980001F027FDB8F1F00FF6D1DFF8C8A0DFF8AD
:1011A800C880504601F01DFD404601F01AFD234855
:1011B80001F017FD224801F014FD224801F011FD4D
:1011C800214BC3F800A0214BC3F8008007E0204B57
:1011D8001B6823B92B68DB6A9F4200D32C601D4A29
:1011E8001D491368013313606364E26A01240B68C4
:1011F80004FA02F0034314200B60314600FB02900E
:1012080001F0FDFC00F000FE114B1B685BB12B6880
:10121800DB6A9F4207D94FF08052104B1A60BFF328
:101228004F8FBFF36F8F2046BDE8F88F4FF0FF3028
:10123800BDE8F88F780A0020400A0020440A002000
:101248001C090020FC080020100900205C0A00206E
:1012580014090020600A00207C0A002004ED00E048
:1012680048090020640A0020300900204FF050038C
:1012780072B683F31188BFF36F8FBFF34F8F62B6D7
:10128800FEE770B403AC70CC50B94FF0500372B69F
:1012980083F31188BFF36F8FBFF34F8F62B6FEE7FA
:1012A8000B2C0AD94FF0500372B683F31188BFF3A1
:1012B8006F8FBFF34F8F62B6FEE7059604950394D0
:1012C80070BCFFF7F1BE00001FB50024802217494B
:1012D80002942346019400941548FFF7E5FE01287F
:1012E80016D100F0E3FE012812D14FF0500372B678
:1012F80083F31188BFF36F8FBFF34F8F62B60D4B27
:1013080018600D4B1C6004B0BDE8104000F0F2BD41
:1013180050B94FF0500372B683F31188BFF36F8F43
:10132800BFF34F8F62B6FEE704B010BD3C4A060813
:101338002516000814090020580A0020024A1368DC
:1013480001331360704700BF380A0020014B18684A
:10135800704700BF580A002008B500F01FFE014B77
:10136800186808BD580A0020454B1B682DE9F74F3F
:10137800002B44D1434B1A6801321A601D68CDB95D
:10138800414B1A68126852B14FF0500372B683F39A
:101398001188BFF36F8FBFF34F8F62B6FEE73B4AEA
:1013A8001968106818601160394A136801331360AE
:1013B800FFF740FE374C4FF0000B374E236801947F
:1013C8009D42364F0BD3DFF8C080DFF8DC90D8F8A9
:1013D80000201268E2B94FF0FF32019B1A603A68A8
:1013E800D16A14224A43B258022A2D4A126828BFE9
:1013F8004FF0010B002A39D103F05EFB36E0284A92
:101408004FF0000B13680133136003F055FB2DE018
:10141800D8F80020D268D46861688D4202D2019B56
:101428001960DCE704F1040A504601F00CFCA16ADB
:1014380019B104F1180001F006FCE06A0123D9F89B
:10144800001003FA00FE4EEA01014FF0140EC9F82D
:10145800001051460EFB006001F0D1FB3868E16ACC
:10146800C26A914228BF4FF0010BB0E70D4A1268DB
:10147800002A18BF4FF0010B584603B0BDE8F08FA3
:10148800380A0020580A0020100900205C0A0020B1
:101498003C0A00200400002048090020400A0020DF
:1014A80044090020800A00207C0A00202DE9F84326
:1014B800314C236853B94FF0500372B683F3118847
:1014C800BFF36F8FBFF34F8F62B6FEE700F076FC75
:1014D8002368013B236023680BB1002447E0274BB6
:1014E8001B68002BF9D0264D264EDFF8AC802B6800
:1014F80003B3EB680127DC6804F1040904F1180060
:1015080001F0A1FB484601F09EFBE26A3368142013
:1015180007FA02F100FB02800B434946336001F0F1
:101528006EFB194BE26A1B68DB6A9A42DFD3174BE2
:101538001F60DAE7164C236863B9144B1C68012C4A
:10154800CBD14FF08052134B1A60BFF34F8FBFF3CC
:101558006F8F0CE00D4D01262368002BEDD0FFF7AF
:1015680003FF00B12E602368013B2360F4E700F01D
:101578004BFC2046BDE8F883380A0020780A002092
:10158800440A00207C0A0020400A0020800A00202B
:101598004409002004ED00E04809002038B540B9AE
:1015A8004FF08052184B1A60BFF34F8FBFF36F8F05
:1015B80038BD164B1B6853B14FF0500372B683F316
:1015C8001188BFF36F8FBFF34F8F62B6FEE7FFF747
:1015D800B5FE0F4B0F4D1B68C4182868043001F086
:1015E80032FB40B92B680C49D86A01230A6883404A
:1015F80022EA03030B602046FFF72EFDFFF756FF94
:101608000028CDD038BD00BF04ED00E0380A002026
:10161800580A0020400A00207C0A0020194D2E4656
:1016280080B5194F2B68F3B1FFF788FE3C68FFF7C8
:101638003DFF002CF6D000F0C1FB134BDB68DC68E3
:10164800201D01F000FB114A1368013B1360336849
:10165800013B336000F0D8FB206B00F04BFB2046C9
:1016680000F048FBDEE70A4B1B68012B07D94FF057
:101678008052084B1A60BFF34F8FBFF36F8F03F090
:1016880011FACEE7180900201C090020780A00206A
:101698004809002004ED00E01B4B1A681B4B10B5ED
:1016A80012B101221A6010BD1A6003F03BFA184B00
:1016B8001B68B3FA83F3DBB214221649C3F11F0384
:1016C8005A438C58881854B94FF0500372B683F3B4
:1016D8001188BFF36F8FBFF34F8F62B6FEE7446880
:1016E800083264680A449442446004BF62684260F5
:1016F800142202FB03135B68DA68074BBDE810404D
:101708001A6003F0FFB900BF380A0020800A0020E1
:101718007C0A002048090020400A002038B50D4600
:1017280050B94FF0500372B683F31188BFF36F8F2F
:10173800BFF34F8F62B6FEE7114C2168183101F0F4
:101748006AFA2068043001F07EFA40B923680D492E
:10175800D86A01230A68834022EA03030B606B1CE2
:1017680006D1216808480431BDE8384001F047BA7D
:10177800064B18682844BDE83840FFF76DBC00BF29
:10178800400A00207C0A0020FC080020580A00209B
:1017980038B50D4650B94FF0500372B683F311882F
:1017A800BFF36F8FBFF34F8F62B6FEE70C4C216813
:1017B800183101F024FA2068043001F044FA40B9E5
:1017C80023680849D86A01230A68834022EA030388
:1017D8000B60054B18682844BDE83840FFF73CBC4F
:1017E800400A00207C0A0020580A0020C36870B50F
:1017F800DC6854B94FF0500372B683F31188BFF315
:101808006F8FBFF34F8F62B6FEE704F118052846C5
:1018180001F019FA114B1B6883B9261D304601F0F7
:1018280012FA0F49E56A01230A681420AB401343F2
:101838000B6031460B4B00FB053001E029460A4896
:1018480001F0DDF9094BE26A1B68DB6A9A4203D9A9
:101858000120074B186070BD002070BD380A0020B9
:101868007C0A002048090020440A0020400A002081
:10187800800A002008B508B9FFF7F8FC034B1B687D
:101888000360034B1B68436008BD00BF3C0A00208F
:10189800580A002038B50D46044650B94FF0500399
:1018A80072B683F31188BFF36F8FBFF34F8F62B6A1
:1018B800FEE751B94FF0500372B683F31188BFF3B6
:1018C8006F8FBFF34F8F62B6FEE700F077FA0E4BCB
:1018D80019682B685A1C10D00C4A2068126890426C
:1018E800626801D091420AD2881A834207D9521AF3
:1018F800204613442B60FFF7BDFF002400E00124BD
:1019080000F082FA204638BD580A00203C0A002020
:101918000122014B1A607047800A0020014B1868A9
:10192800704700BF400A0020054B1B6833B1054BC8
:101938001B68002B0CBF0220002070470120704755
:1019480014090020380A00202DE9F0410446002837
:1019580038D01D4DC36A2A68D26A934232D282694E
:10196800002A04DB2A68D26AC2F10C028261174E8F
:101978001427626907FB03639A4220D104F1040823
:10198800404601F060F9124B48B9E06A4743F25902
:101998002AB901221968824021EA02021A602A68DB
:1019A80001204146D26AE26290401C6820431860D8
:1019B800142000FB0260BDE8F04101F020B92B685B
:1019C800DB6AE362BDE8F081400A00204809002094
:1019D8007C0A0020F8B5044608B90020F8BD244B5D
:1019E8001B6898420AD04FF0500372B683F31188EF
:1019F800BFF36F8FBFF34F8F62B6FEE7036D53B926
:101A08004FF0500372B683F31188BFF36F8FBFF3A3
:101A18004F8F62B6FEE7C16A013BC26C0365914213
:101A2800DBD0002BD9D1051D124E284601F00BF949
:101A3800114A50B9E76A1421794373582BB9012325
:101A48001068BB4020EA03031360E36C1068C3F11D
:101A58000C01E362A161012404FA03F10843294659
:101A68001060142000FB036001F0C9F82046F8BD9F
:101A7800400A0020480900207C0A0020044B1A680C
:101A88001AB119680A6D01320A651868704700BFF3
:101A9800400A002008B5FFF717FC002008BD70B504
:101AA800B0F9084086B00025028A842C0B4614BF82
:101AB80003342C4690E8420005A80395029501904E
:101AC80030460094FFF7DDFB01280CBF0598002085
:101AD80006B070BDFFF722BF002808BF012008B577
:101AE800FFF75CFD002008BD07B50368013905480C
:101AF800009313464A424A41012100F0FDFA03B01F
:101B08005DF804FB274A06082DE9FF414FF000085D
:101B180005460F46CDF80C8000F05AFC0446E0B1AB
:101B2800EFF3058666B1FFF717FCCDF80080024693
:101B380003AB0721284600F007FB012842D124E027
:101B4800FFF704FC3346024602210096284600F0BF
:101B5800FBFA012836D1002035E0002F08BF012705
:101B6800EFF30586EEB1009003AB3A46092128460B
:101B780000F0EAFA012825D1FFF7EEFB00940246AF
:101B880003AB0621284600F0DFFA039B002BE2D0C6
:101B98004FF080520D4B1A60BFF34F8FBFF36F8F1A
:101BA800D9E7009633463A460421284600F0CCFA95
:101BB8000128044606D1FFF7C9FB009633460246C2
:101BC8002146C3E7FF2004B0BDE8F08104ED00E042
:101BD800012000F0DFBD000013B500240A4601947F
:101BE800E8B1EFF305839BB101AA214600F07EFF1F
:101BF800012801D0FF2013E0019B73B14FF0805200
:101C0800084B1A60BFF34F8FBFF36F8F204607E072
:101C1800194600F0AFFE0128ECD1002000E080203A
:101C280002B010BD04ED00E00129084610B50BD143
:101C38000322002100F09AFC044650B100231A4602
:101C4800194600F0EDFC04E00021BDE8104000F06A
:101C5800BABC204610BD000013B500240194EFF370
:101C680005838BB101A900F02DFE012812D1019B3B
:101C78000BB900200FE04FF08052084B1A60BFF3F9
:101C88004F8FBFF36F8FF4E71A46194600F0C8FC70
:101C98000128EED0FF2002B010BD00BF04ED00E027
:101CA800FFF7DABF38B5430704461CBF20F0070426
:101CB8000834FFF743FB0C4A13681BB90B4B23F09E
:101CC800070313600A4947F2F7700B681C44844203
:101CD80005D8A34203D215680C601D4400E0002516
:101CE800FFF7E4FB284638BD880A0020940A002044
:101CF800840A002050B14FF0500372B683F3118864
:101D0800BFF36F8FBFF34F8F62B6FEE770470000D7
:101D18000C4B1B6801330AD04FF0500372B683F3A3
:101D28001188BFF36F8FBFF34F8F62B6FEE74FF096
:101D3800500372B683F31188BFF36F8FBFF34F8FD1
:101D480062B6FEE70800002006480068006880F3D5
:101D5800088862B661B6BFF34F8FBFF36F8F00DF9D
:101D680000BF000008ED00E0DFF80C00016841F456
:101D7800700101607047000088ED00E04FF080734B
:101D880040F8202C00E90A00034B443883636FF0C5
:101D980002030362704700BF191D0008064B19684B
:101DA8000868B0E8F04F80F30988BFF36F8F4FF0F1
:101DB800000080F311887047400A00204FF050035C
:101DC80072B683F31188BFF36F8FBFF34F8F62B67C
:101DD8000B4A13680133012B13600FD1094B1B68A1
:101DE80013F0FF0F0AD04FF0500372B683F3118837
:101DF800BFF36F8FBFF34F8F62B6FEE7704700BF28
:101E08000800002004ED00E0094A136853B94FF0B8
:101E1800500372B683F31188BFF36F8FBFF34F8FF0
:101E280062B6FEE7013B13600BB983F31188704774
:101E380008000020EFF30980BFF36F8F154B1A6875
:101E48001EF0100F08BF20ED108A20E9F04F106037
:101E58004DF8043D4FF0500072B680F31188BFF37F
:101E68004F8FBFF36F8F62B6FFF716FC4FF000007D
:101E780080F3118808BC19680868B0E8F04F1EF0B4
:101E8800100F08BFB0EC108A80F30988BFF36F8F7A
:101E9800704700BF400A002008B5EFF311834FF0E8
:101EA800500272B682F31188BFF36F8FBFF34F8F62
:101EB80062B6FFF759FA18B14FF08052024B1A6018
:101EC800002383F3118808BD04ED00E0064B4FF4AE
:101ED8007A721B68B3FBF2F3044A013B13600722D2
:101EE800034B1A60704700BF0000002014E000E0B8
:101EF80010E000E0234B13B51A780021D2B201920A
:101F0800FF221A701B78204ADBB28DF803309DF847
:101F1800033003F05003137007221C4B1A609DF81E
:101F28000300541E000608D59DF803200121520025
:101F3800D2B28DF803202246F1E701B11A601A687F
:101F4800120202F4E0621A60019B0E4ADBB21370BF
:101F58000F4B1A6842F470021A601A6842F0704215
:101F68001A60FFF7B3FF00220A4B1A60FFF7FCFE66
:101F7800094A136843F040431360FFF7E5FEFFF793
:101F8800C7FE00BF00E400E08C82002090820020A1
:101F980020ED00E00800002034EF00E0EFF30583B7
:101FA8000F2B10D9124A9B5C124A12789A420AD90E
:101FB8004FF0500372B683F31188BFF36F8FBFF3EE
:101FC8004F8F62B6FEE70C4B0C4A1B68126803F48D
:101FD800E06393420AD94FF0500372B683F3118835
:101FE800BFF36F8FBFF34F8F62B6FEE7704700BF36
:101FF800F0E300E08C8200200CED00E090820020ED
:10200800914208B54160006106D8D21A83699A42A4
:102018000DD2011D074B05E09A4201D2994206D222
:10202800011D054B186800F0F6FD002008BD0120D1
:1020380008BD00BFC882002094820020F8B5154C66
:10204800FFF7BCFE256805BB134F144E384600F059
:10205800C8FD304600F0C5FD114B2A460C211F6013
:102068000A20104B1E6000F081FA206050B94FF032
:10207800500372B683F31188BFF36F8FBFF34F8F8E
:1020880062B6FEE7084900F07BFDBDE8F840FFF7BF
:10209800BBBE00BFC482002098820020AC82002012
:1020A80094820020C8820020414A06081FB5FFF725
:1020B800C5FF0E4B1B685BB1002304220C4900923C
:1020C80080220393029301930A48FFF7DAF850B984
:1020D8004FF0500372B683F31188BFF36F8FBFF3CD
:1020E8004F8F62B6FEE705B05DF804FBC48200209E
:1020F800464A0608192200082DE9F041804617468D
:102108001E460D4689B12C20FFF7CCFD0446B8B118
:10211800FFF794FF069BC4F80080201DA561E761C6
:102128002662636200F068FD0AE04FF0500372B661
:1021380083F31188BFF36F8FBFF34F8F62B6FEE74B
:102148002046BDE8F08100007FB50E4C05461646D6
:102158001A462068A0B105290191029603950BDC67
:10216800FFF7E2FB0023022801A920680CBF089AA8
:102178001A4600F055FA03E0002301A900F03EFBDF
:1021880004B070BDC48200202DE9F7431E4E4FF005
:102198000008374633681A686AB3DB68DC681D686C
:1021A80004F10409484600F04EFD636A204698474A
:1021B800E369012BEED1A3692B449D4206D26360EB
:1021C80049462461386800F026FDE3E70023CDF88E
:1021D80000802A4620461946FFF7B6FF0028D9D1C5
:1021E8004FF0500372B683F31188BFF36F8FBFF3BC
:1021F8004F8F62B6FEE7054A03491068136008600E
:1022080003B0BDE8F08300BF94820020C88200209C
:102218002DE9F04F6A4D89B0DFF8B0812F462B6861
:102228001C681CB1DB68D3F8009000E0A146FFF7FA
:1022380085F8FFF78BF8634B82461A681E46904272
:1022480006D203934FF0010BFFF79EFF039B01E0BB
:102258004FF0000BC3F800A0BBF1000F41D16CB3E5
:10226800CA452BD3FFF722F93B68DB68DC68201DE1
:1022780000F0E9FCE369012B1CD1A1694B465246E9
:1022880020464944FFF7BCFE012813D1CDF800B021
:102298005B464A4659462046FFF756FF50B94FF06D
:1022A800500372B683F31188BFF36F8FBFF34F8F5C
:1022B80062B6FEE7636A2046984745E0424BCAEBA0
:1022C8000901186800F070FCFFF7F0F800283BD10E
:1022D8004FF08053C8F80030BFF34F8FBFF36F8FB4
:1022E80032E0FFF7E3F82FE0002305A9D9F8000052
:1022F8001A4600F03FFB002891D0059B002BF3DB2A
:10230800079C636913B1201D00F09DFCFFF71EF8C0
:1023180033688346984201D2FFF736FF059AC6F81C
:1023280000B0092AE0D80123934013F4047A31D18C
:1023380013F0C70F0BD0A1695A46069B20461944D3
:10234800FFF75EFE012808D0DFF87C90CCE79B06FB
:10235800CAD52046FFF7CEFCF6E7636A20469847C1
:10236800E369012BF0D1A269534606992046CDF8BE
:1023780000A00A445146FFF7E7FE0028E4D14FF0D9
:10238800500372B683F31188BFF36F8FBFF34F8F7B
:1023980062B6FEE70699A16151B94FF0500372B6D3
:1023A80083F31188BFF36F8FBFF34F8F62B6FEE7D9
:1023B8005B465A4659442046FFF722FEC4E700BF51
:1023C80094820020C0820020C482002004ED00E036
:1023D80010B50446FFF7F2FC6469003418BF012405
:1023E800FFF712FD204610BD38B51546026C0446AD
:1023F80032B9056845BB4068FFF7ECFA656024E030
:102408006DB98068FDF72EFFA268236C13446268DB
:102418009342A36018D323682846A36015E0C068D8
:10242800FDF720FF236CE2685B4221681A448A4268
:10243800E2603EBF62689B18E360022D04D1A36B83
:1024480013B1A36B013BA3630020A36B0133A36308
:1024580038BD034608461A6C10B462B1D9685C6886
:102468001144A142D9605DF8044B24BF1968D960B2
:10247800D968FDF7F7BE5DF8044B704738B50446D8
:10248800FFF79CFC04F12405A36C002B0BDD636AA9
:102498004BB12846FFF7AAF908B1FFF739FAA36C40
:1024A800013BA364F0E74FF0FF3304F11005A36488
:1024B800FFF7AAFCFFF782FC636C002B0BDD236996
:1024C8004BB12846FFF792F908B1FFF721FA636C80
:1024D800013B6364F0E74FF0FF336364BDE83840C5
:1024E800FFF792BC4FF0500372B683F31188BFF325
:1024F8006F8FBFF34F8F62B6FEE7000038B50D4609
:10250800044608B9FFF7EEFFFFF758FC206CE36BB1
:1025180022684343A260D1181B1A1344616000214A
:10252800E3604FF0FF33A1636364A36485B9236953
:10253800B3B104F11000FFF759F9012810D14FF099
:102548008052094B1A60BFF34F8FBFF36F8F07E0BC
:1025580004F1100000F045FB04F1240000F041FBF9
:10256800FFF752FC012038BD04ED00E0F8B50D4638
:102578001746064650B94FF0500372B683F31188D8
:10258800BFF36F8FBFF34F8F62B6FEE711B14843B9
:10259800013000E008465430FFF784FB044630B1B0
:1025A8000DB9206005E000F15403036001E0FFF776
:1025B80099FFE663012125642046FFF79FFF84F811
:1025C80050702046F8BD10B50C4650B94FF0500376
:1025D80072B683F31188BFF36F8FBFF34F8F62B664
:1025E800FEE788420AD24FF0500372B683F311888F
:1025F800BFF36F8FBFF34F8F62B6FEE70222002151
:10260800FFF7B4FF08B1846310BD4FF0500372B6F2
:1026180083F31188BFF36F8FBFF34F8F62B6FEE766
:102628002DE9FF47894601921F46044650B94FF0ED
:10263800500372B683F31188BFF36F8FBFF34F8FC8
:1026480062B6FEE761B9036C53B14FF0500372B63E
:1026580083F31188BFF36F8FBFF34F8F62B6FEE726
:10266800022F0DD1E36B012B0AD04FF0500372B645
:1026780083F31188BFF36F8FBFF34F8F62B6FEE706
:10268800FFF752F910B9019E0EB173E000264FF022
:102698000008DFF8FCA0FFF791FBA26BE36B9A42FE
:1026A80001D3022F1AD13A4649462046FFF79CFE2D
:1026B800636A33B104F12400FFF798F8012809D1BF
:1026C80000E038B14FF08052314B1A60BFF34F8FA2
:1026D800BFF36F8FFFF798FB012056E0019D1DB9EE
:1026E800FFF792FB284650E016B902A8FFF7C2F898
:1026F800FFF78AFBFEF722FEFFF760FB636C0133EE
:1027080001D1C4F84480A36C013301D1C4F84880D6
:10271800FFF77AFB01A902A8FFF7BCF818BBFFF77F
:102728004DFBA66BE56BFFF76FFBAE4215D1019928
:1027380004F11000FEF7F2FF2046FFF79FFEFEF7B8
:10274800B5FE08B10126A6E74FF08053CAF800305D
:10275800BFF34F8FBFF36F8FF4E72046FFF78EFE6E
:10276800FEF7A4FEEEE72046FFF788FEFEF79EFE82
:1027780000200AE04FF0500372B683F31188BFF3CC
:102788006F8FBFF34F8F62B6FEE704B0BDE8F087E6
:1027980004ED00E070B506465420FFF783FA0446BE
:1027A80050B94FF0500372B683F31188BFF36F8F9F
:1027B800BFF34F8F62B6FEE70123002580F8506013
:1027C8001030C3624FF0FF33856240F80C5C4363FE
:1027D80040F8105C836340F8085C40F8045C0563CB
:1027E80000F0FFF904F1240000F0FBF92B462A461B
:1027F80029462046FFF714FF204670BD2DE9F04119
:102808000E4690461D46044650B94FF0500372B626
:1028180083F31188BFF36F8FBFF34F8F62B6FEE764
:1028280061B9036C53B14FF0500372B683F311884A
:10283800BFF36F8FBFF34F8F62B6FEE7022D0DD146
:10284800E36B012B0AD04FF0500372B683F3118863
:10285800BFF36F8FBFF34F8F62B6FEE7FFF79EFBA4
:10286800EFF311874FF0500372B683F31188BFF36B
:102878006F8FBFF34F8F62B6A26BE36B9A4201D39F
:10288800022D1AD12A4631462046FFF7ADFDA36C2A
:1028980001330DD1636A73B104F12400FEF7A6FF7A
:1028A80048B1B8F1000F06D00120C8F8000005E0D3
:1028B800A36C0133A364012000E0002087F3118892
:1028C800BDE8F08170B50D46044650B94FF050038D
:1028D80072B683F31188BFF36F8FBFF34F8F62B661
:1028E800FEE7036C53B14FF0500372B683F31188BF
:1028F800BFF36F8FBFF34F8F62B6FEE703680BB964
:1029080043684BBBFFF74AFBEFF311864FF05003C8
:1029180072B683F31188BFF36F8FBFF34F8F62B620
:10292800A26BE36B9A4215D2A36B0133A363A36C2A
:1029380001330AD1636A5BB104F12400FEF756FF44
:1029480030B12DB10120286011E0A36C0133A364DC
:1029580001200CE000200AE04FF0500372B683F328
:102968001188BFF36F8FBFF34F8F62B6FEE786F310
:10297800118870BD2DE9FF47884601929A460446A2
:1029880050B94FF0500372B683F31188BFF36F8FBD
:10299800BFF34F8F62B6FEE761B9036C53B14FF0D6
:1029A800500372B683F31188BFF36F8FBFF34F8F55
:1029B80062B6FEE7FEF7B8FF10B9019E0EB185E0DA
:1029C80000260027DFF82091FFF7F8F9A36B63B31F
:1029D80041462046E568FFF73CFDBAF1000F10D1EB
:1029E800A36B013BA363236813B9FFF747F8606043
:1029F8002369B3B104F11000FEF7F8FE012810D1E5
:102A080007E0636AE56063B104F12400FEF7EEFEB7
:102A180038B14FF08052344B1A60BFF34F8FBFF379
:102A28006F8FFFF7F1F901205BE0019D1DB9FFF7FA
:102A3800EBF9284655E016B902A8FEF71BFFFFF789
:102A4800E3F9FEF77BFCFFF7B9F9636C013300D1BA
:102A58006764A36C013300D1A764FFF7D5F901A916
:102A680002A8FEF717FF50BBFFF7A8F9A56BFFF701
:102A7800CBF9F5B9236833B9FFF7A0F96068FEF719
:102A880063FFFFF7C1F9019904F12400FEF746FE40
:102A98002046FFF7F3FCFEF709FD08B1012693E78E
:102AA8004FF08053C9F80030BFF34F8FBFF36F8FDB
:102AB800F4E72046FFF7E2FCFEF7F8FCEEE72046D5
:102AC800FFF7DCFCFEF7F2FC00200AE04FF05003B1
:102AD80072B683F31188BFF36F8FBFF34F8F62B65F
:102AE800FEE704B0BDE8F08704ED00E0F8B50E4657
:102AF8001746044650B94FF0500372B683F3118855
:102B0800BFF36F8FBFF34F8F62B6FEE761B9036CF7
:102B180053B14FF0500372B683F31188BFF36F8F30
:102B2800BFF34F8F62B6FEE7FFF738FAEFF3118570
:102B38004FF0500372B683F31188BFF36F8FBFF362
:102B48004F8F62B6A06BC0B131462046FFF781FCBB
:102B5800A36B013BA363636C01330AD123695BB1A7
:102B680004F11000FEF742FE30B12FB101203860A9
:102B780003E0636C01336364012085F31188F8BDB9
:102B88000023084A30B552F8335002EBC30425B984
:102B9800044A606042F8331030BD0133082BF2D18B
:102BA80030BD00BF8887022038B504460D46FFF7C0
:102BB80005F9636C013301D100236364A36C01330D
:102BC80001D10023A364FFF71FF9A36B23B929469A
:102BD80004F12400FEF7DCFD2046BDE83840FFF78D
:102BE8004DBC00F108034FF0FF324360C36003613E
:102BF80000238260036070470023036170474368C5
:102C08009A684B608A609A685160996003680861A5
:102C18000133036070470A68531C30B501D103695A
:102C280007E000F108035C682568AA4201D323463F
:102C3800F9E75A684A6091608B60596003680861D7
:102C48000133036030BD4168826803698A60826825
:102C580051605968884208BF5A60002202611868AA
:102C6800013818607047000003682DE9F341DD075B
:102C7800044603D42368980770D4C3E0A44B9A6829
:102C880002F00C02042A07D09A6802F00C02082A03
:102C98000BD15B68590208D59D4B1B689A03E9D58F
:102CA8006368002BE6D10120B1E1994D2B682E46CF
:102CB80023F480332B602B6823F480232B602B684C
:102CC80023F480332B6000F009FB07463368904DEE
:102CD8009B0307D500F002FBC01BB0F5FA7FF5D9BE
:102CE800032094E12B6823F480332B606368B3F5E9
:102CF800803F03D12B6823F4802305E0B3F5A02F90
:102D080008D12B6843F480232B602B6843F480336D
:102D18002B6008E02A6822F480222A602A6822F4BC
:102D280080322A606BB100F0D9FA794D06462B68DB
:102D38009F039FD400F0D2FA801BB0F5FA7FF6D932
:102D4800CEE700F0CBFA06462B68980392D500F040
:102D5800C5FA801BB0F5FA7FF6D9C1E76C4B9A68C3
:102D680012F00C0F07D09A6802F00C02082A17D14B
:102D78005B68590214D4664B1A68920702D5E26858
:102D8800012A90D11A68F82191FAA1F12069B1FAC3
:102D980081F122F0F80200FA01F10A431A6031E0E9
:102DA800E3685B4DF3B12B6843F001032B6000F03F
:102DB80095FA06462B6856489F0705D400F08EFA08
:102DC800801B6428F6D98BE70368F82292FAA2F2EE
:102DD8002169B2FA82F223F0F80301FA02F21343EE
:102DE80003600FE02B6823F001032B6000F076FAF4
:102DF80006462B68990705D500F070FA801B6428F1
:102E0800F7D96DE723681A0703D423685B0769D5E8
:102E180022E063693E4D7BB16B6F43F001036B6742
:102E280000F05CFA06466B6F9F07EED400F056FA86
:102E3800801B6428F7D953E76B6F23F001036B6796
:102E480000F04CFA06466B6F9807DED500F046FA9C
:102E5800801B6428F7D943E700232E4D01932C4BA0
:102E68001A6C42F080521A641B6C03F08053019371
:102E7800019B2B6843F480732B6000F02FFA064601
:102E88002B68D90531D5224D41F288382B6F2E4653
:102E980023F001032B672B6F23F004032B672B6FA1
:102EA80023F001032B6700F019FA0746336F184D1A
:102EB8009A0720D42B6F23F001032B67A368012BFB
:102EC8001FD12B6F23F004032B672B6F43F00103F3
:102ED8002B6700F003FA0E4D064641F288372B6F38
:102EE8009B0723D5A269AABB77E000F0F7F9801BFE
:102EF8006428C5D9F4E600F0F1F9C01B4045D5D9DE
:102F0800EEE6052B08D12B6F43F00403DCE700BF86
:102F180000380240007000402A6F22F004022A673D
:102F28002A6F22F001022A6733B1D2E700F0D6F9FE
:102F3800801BB842D3D9D3E600F0D0F941F28837E4
:102F480006462B6F9807CDD500F0C8F9801BB8420C
:102F5800F7D9C5E62F4DAB6803F00C03082B3FF4F7
:102F6800A2AE2B68022A23F080732B6043D100F0B5
:102F7800B5F907462B68274E990130D447F6C07239
:102F880092FAA2F24FF44033B2FA82F093FAA3F322
:102F98004FF07062B3FA83F592FAA2F2236AB2FA9A
:102FA80082F1E769626A1F43824047F0005343EAAF
:102FB8000200A36A5A08013A02FA05F3E26A0343D7
:102FC8008A4013437360336843F08073336000F0C2
:102FD80085F9044633689A0107D5002017E000F008
:102FE8007DF9C01B6428C5D97AE600F077F9001B83
:102FF8006428EFD974E600F071F904462B689B0148
:10300800EBD500F06BF9001B6428F7D968E602B02D
:10301800BDE8F081003802406C4A136803F00F03E2
:103028008B422DE9F04104460D4666D2136823F021
:103038000F030B431360136803F00F03994202D088
:103048000120BDE8F08101688F0706D560488368D4
:1030580023F0F002A36813438360CE070BD42168E2
:103068004D0740F1A3805A48836823F4E052E3688F
:10307800134383609AE06268554B012A196802D1AC
:1030880011F4003F06E0022A02D111F0007F01E0AE
:1030980011F0020FD4D0996841F288374C4E21F0D4
:1030A80003010A439A6000F019F963680546012B89
:1030B8000CD1B36803F00C03042BD0D000F00EF948
:1030C800401BB842F5D90320BDE8F081022B0FD18F
:1030D800B36803F00C03082BC1D000F0FFF8401BC5
:1030E800B842F5D9EFE700F0F9F8401BB842EAD842
:1030F800B36813F00C0FF6D1B1E70168880706D55D
:103108003348836823F0F002A36813438360CA0737
:103118000BD42E4A136823F00F032B431360136854
:1031280003F00F039D428BD199E76268284B012A6F
:10313800196802D111F4003F06E0022A02D111F009
:10314800007F01E011F0020F3FF47AAF996841F275
:1031580088381F4F21F003010A439A6000F0BEF837
:1031680063680646012B0AD1BB6803F00C03042BE5
:10317800CFD000F0B3F8801B4045F5D9A3E7022B68
:103188000FD1BB6803F00C03082BC2D000F0A6F8DF
:10319800801B4045F5D996E700F0A0F8801B404514
:1031A80091D8BB6813F00C0FF6D1B2E70B0707D51F
:1031B800074A2169936823F4604343EAC103936093
:1031C8000F2000F05FF80020BDE8F081003C0240CD
:1031D800003802401B498B6803F00C03042B2CD0E9
:1031E800082B2CD1486847F6C0724B6800F03F00A6
:1031F80013F4800F4B6892FAA2F247F6C071B2FA44
:1032080082F201EA030121FA02F114BF0E4A0F4AC1
:10321800B2FBF0F00B4A00FB01F34FF44030526868
:1032280090FAA0F002F44032B0FA80F022FA00F0EE
:1032380001304000B3FBF0F0704703487047034883
:10324800704700BF0038024040787D010024F40038
:1032580008B5FFF7BFFF084BF0229B6892FAA2F26D
:10326800B2FA82F203F0F003D340044AD35CD840A8
:10327800034B186008BD00BF003802404E4A0608DC
:103288000000002010B50446FFF7E2FF4FF47A7300
:10329800B0FBF3F000F084F9002221464FF0FF3034
:1032A80000F03AF9002010BD074A032008B513685A
:1032B80043F40073136000F01DF90F20FFF7E2FFDD
:1032C800FDF738F9002008BD003C0240024A1368A7
:1032D80001331360704700BFCC820020014B18688F
:1032E800704700BFCC8200202DE9F04F724F85B0A7
:1032F8000B680022DFF8C8C1BE46DFF8C881019319
:103308000124019B944034EA030340F0CD804D68CA
:1033180025F0100ABAF1020F14D14FEAD20902F0CF
:10332800070B0F2300EB89094FEA8B0BD9F82060B4
:1033380003FA0BF326EA03060B6903FA0BF333438C
:10334800C9F820304FEA420B4FF00309036805F033
:10335800030609FA0BF90AF1FF3A06FA0BF66FEAC7
:103368000909BAF1010F03EA090343EA06030360F6
:103378000FD88368CE6809EA030306FA0BF61E43E2
:103388008660C5F300164368964023EA0403334376
:103398004360C36809EA03098B6803FA0BF343EA3D
:1033A8000903C360EB007FD5002322F0030902F074
:1033B800030A039309F18049DCF844604FEA8A0A5A
:1033C80009F59C393D4B46F480469842CCF8446058
:1033D800DCF8446006F480460396039E4FF00F061F
:1033E800D9F808B006FA0AF62BEA060624D003F53F
:1033F8008063984222D003F58063984220D003F579
:10340800806398421ED003F5806398421CD04045E3
:103418001CD003F5006398421AD003F580639842E4
:1034280018D003F58063984216D003F5806398425C
:1034380014BF0A23092310E000230EE001230CE047
:1034480002230AE0032308E0042306E0052304E03E
:10345800062302E0072300E0082303FA0AF315F421
:10346800803F43EA06036FEA0406C9F808303B6860
:103478000CBF3340234315F4003FCEF80030DEF88C
:1034880004300CBF3340234315F4801F7B60BB68B6
:103498000CBF33402343AD02CEF80830DEF80C30C1
:1034A80054BF33402343FB600132102A7FF428AF16
:1034B80005B0BDE8F08F00BF003C014000000240AD
:1034C800003802400014024002B9090481617047C3
:1034D80082B000230193019B02B0704708B5044BEA
:1034E8005969014202D05861FFF7F2FF08BD00BFD9
:1034F800003C0140074A0002D36800F4E06023F46E
:10350800E0631B041B0C43F0BF6343F40033034325
:10351800D360704700ED00E0194BDB68C3F302236A
:1035280030B5C3F107041D1D042C28BF0424062D43
:103538004FF001058CBF033B002305FA04F4002873
:1035480004F1FF3404EA010404FA03F405FA03F36E
:1035580003F1FF3302EA030242EA04024FEA0212CD
:1035680005DA00F00F00D2B2064B1A5430BD00F154
:103578006040D2B200F5614080F8002330BD00BF42
:1035880000ED00E014ED00E04209012300F01F0007
:1035980003FA00F0014B43F82200704700E100E015
:1035A8000138B0F1807F0AD2064BF021064A5860F4
:1035B800002082F82310072298601A6070470120C3
:1035C800704700BF10E000E000ED00E043781149CB
:1035D8008B600378DBB14368CB60C37A027B1B0640
:1035E80043EA027302781343827A43EAC243427B76
:1035F80043EA8243827B43EA4243C27B43EA024373
:10360800427A43EA0223027A43EA420300E0CB60AB
:103618000B61704790ED00E02DE9F0430468D2019A
:103628004F684FF0000804F1840EE568D1F800C037
:1036380002EB0E03C5F30B455868EE190CF10105B2
:1036480000F470405860E068C0F30B402844CD682F
:1036580040EA06405860E068C0F30A0046199868D6
:103668008D6800F470409860681CE4688D69C4F344
:103678000A04204440EA06400E699860186920F060
:10368800070018611E61986991F8314091F83290ED
:10369800C3F8188091F8300040EA056545EA04242B
:1036A80044EA09449C61586920F0FF005861486960
:1036B8005861D86920F4E06020F00700D861CD692E
:1036C8000C6A2C43DC61986A486AC3F828809862BF
:1036D8004EB1012E09D0B01E022808D9072E0CBF02
:1036E8000220012004E0042002E0032000E0022080
:1036F800DC6ACCEB070704F0E024DC628C6AC96A58
:1037080044437843033040EA0440D862186B20F4FD
:10371800FF6020F007001863196352F80E3043F079
:10372800010342F80E30BDE8F083000038B50446C6
:1037380000286AD090F8A13003F0FF021BB980F886
:10374800A020FDF785F9022384F8A13023689A693F
:1037580022F070429A61626899691143A268114324
:10376800E268114322690A439A61294A99680A4022
:1037780061699A60A2699868024342EA01429A60C4
:10378800234AD9680A40E169DA60226AD8680243A4
:1037980042EA0142DA601E4A19690A40616A1A61FE
:1037A800A26A1869024342EA01421A61184A596931
:1037B8000A40E16A5A615869226B024342EA0142AF
:1037C8005A61D96A94F8360001F07F4194F835209F
:1037D800D962D96A94F83450294341EA022242EA6C
:1037E80000420020DA625A6B42F004025A635A6BB4
:1037F80042F002025A639A6942F001029A61012377
:10380800C4F8A40084F8A13038BD012038BD00BF39
:1038180000F800F010B50446FDF7C6F90020C4F81A
:10382800A40084F8A00084F8A10010BD70470368C4
:103838009A6B520710B5044615D59A6B510712D5E5
:103848005A6B22F004025A630422DA63D0F8A430D7
:1038580043F00103C0F8A430002380F8A12080F8C9
:10386800A030FFF7E3FF23689A6B920716D59A6B8F
:10387800900713D55A6B204622F002025A6302229F
:10388800DA63D4F8A4301343C4F8A430042384F8CA
:10389800A130002384F8A030FFF7C8FF23689A6B93
:1038A800D10710D59A6BD2070DD55A6B204622F056
:1038B80001025A630122DA63002384F8A12084F804
:1038C800A030FDF77DF910BDF8B590F8A030064698
:1038D8008E469446012B4FF002001DD03424012758
:1038E8000D4686F8A10004FB026486F8A0703834FF
:1038F8000FCD0FC40FCD0FC40FCD0FC42B683046AA
:10390800624671462360FFF787FE336800205F62D6
:1039180086F8A17086F8A000F8BD90F8A030012BB9
:103928004FF0020310B512D0046880F8A13004F1FA
:10393800840303EBC212D36803F07F43D3600123EF
:10394800D160636280F8A130002380F8A030184667
:1039580010BDF0B590F8A040012C4FF002042DD016
:10396800012580F8A140DF01002480F8A05034250B
:1039780005FB0303944219D09D6C062D51F8245081
:1039880015BF31F8246004EB041605F47F0525F013
:103998007F4514BF354345EA0665066818BF45EA02
:1039A8000465013484363E443564E3E7012380F836
:1039B800A130002380F8A0301846F0BD2046F0BDA5
:1039C80090F8A030012B4FF0020310B510D0026818
:1039D800C90180F8A13002F18404635843F002035E
:1039E80063500123536280F8A130002380F8A0308F
:1039F800184610BD90F8A030012B4FF0020310B507
:103A080010D00268C90180F8A13002F1840463581B
:103A180023F0020363500123536280F8A13000238E
:103A280080F8A030184610BD90F8A030012B4FF058
:103A3800020310B510D00268C90180F8A13002F164
:103A48008404635843F0100363500123536280F8E1
:103A5800A130002380F8A030184610BD90F8A0309F
:103A6800012B4FF002030CD0074A80F8A13093696C
:103A780043F480339361012380F8A130002380F858
:103A8800A0301846704700BF006801402DE9F0419A
:103A9800174690F8A02005460224012A20D080F875
:103AA800A14034244FF001085C4380F8A080061937
:103AB800326EB1631144726E3764F163174404F1D6
:103AC80038011A4677640144FFF7A6FD2B680020E9
:103AD800C3F8248085F8A18085F8A000BDE8F081AE
:103AE8002046BDE8F08190F8A030012B4FF002038A
:103AF80070B5044615D080F8A1303423012553430E
:103B080080F8A050C618F16403F138010144FFF7AA
:103B180083FD236800205D6284F8A15084F8A0002A
:103B280070BD184670BD90F8A030012B4FF002030D
:103B380070B5044615D080F8A130342301255343CD
:103B480080F8A050C618F16503F138010144FFF769
:103B580063FD236800205D6284F8A15084F8A0000A
:103B680070BD184670BD000090F8A030012B4FF0D2
:103B780002030ED0026880F8A130536B43F00103B2
:103B88005363054B1964012380F8A130002380F8A2
:103B9800A0301846704700BF00680140002373B585
:103BA8000193194B194C1A6C254642F080521A643D
:103BB8001B6C03F080530193019B236843F480330B
:103BC8002360FFF78BFB06466B68104CDA0307D4BB
:103BD800FFF784FB801BB0F57A7FF5D9032011E04D
:103BE800236843F400332360FFF778FB05466368D6
:103BF8009B0306D4FFF772FB401BB0F57A7FF6D91A
:103C0800ECE7002002B070BD0038024000700040B0
:103C180003682DE9F74F13F0010604460BD0B54AA7
:103C2800916821F400019160466B91683143B6FABE
:103C380086F67609916013F4002512D0AD49E56B3C
:103C4800D1F88C20B5F5801F22F4401208BF012658
:103C580042EA050216BFB5FA85F500256D09C1F8D7
:103C68008C20D80211D5A348216CD0F88C20B1F54E
:103C7800800F22F4400242EA0102C0F88C2003D0EF
:103C8800002908BF012500E0012613F0807F18BF36
:103C9800012699065BD50023974F0193954B1A6C23
:103CA80042F080521A641B6C03F080530193019B0D
:103CB8003B6843F480733B60FFF710FB80463B682A
:103CC800DA0507D4FFF70AFBC8EB00006428F6D929
:103CD80003203CE3874F236B3A6F534013F4407F34
:103CE80035D03A6F3B6F22F4407143F480333B6721
:103CF8003B6F23F480333B67930739670FD4226BFC
:103D080002F44073B3F5407F7A4B17D1996821F4D8
:103D1800F81022F0704121F44071014311E0FFF7DF
:103D2800DDFA41F2883980463B6F9807E7D4FFF700
:103D3800D5FAC8EB00004845F6D9C9E7996821F4D7
:103D4800F8119960C2F30B02196F0A431A672368C6
:103D5800D9060CD5674AD2F88C1021F08071C2F8C8
:103D68008C10D2F88C00A16B0143C2F88C105A0455
:103D780008D56048D0F8902022F44031626E0A439A
:103D8800C0F890201F0408D55A48D0F8902022F493
:103D98004021A26E0A43C0F89020D80308D55548A0
:103DA800D0F8902022F44011E26E0A43C0F8902027
:103DB800990308D54F48D0F8902022F44001226F8B
:103DC8000A43C0F890205A0608D54A48D0F89020EF
:103DD80022F00301626C0A43C0F890201F0608D540
:103DE8004448D0F8902022F00C01A26C0A43C0F895
:103DF8009020D80508D53F48D0F8902022F030010F
:103E0800E26C0A43C0F89020990508D53948D0F8E3
:103E1800902022F0C001226D0A43C0F890205A0574
:103E280008D53448D0F8902022F44071626D0A43D6
:103E3800C0F890201F0508D52E48D0F8902022F40D
:103E48004061A26D0A43C0F89020D80408D52948DB
:103E5800D0F8902022F44051E26D0A43C0F8902037
:103E6800990408D52348D0F8902022F44041226EC6
:103E78000A43C0F890205A0208D51E48D0F890206E
:103E880022F08061A26F0A43C0F890209F020CD5EF
:103E98001848E16FD0F89020B1F1006F22F000626D
:103EA80008BF01250A43C0F8902013F0080F18BF77
:103EB8000125580308D50F48D0F8902022F040710A
:103EC800626F0A43C0F89020190209D50948D0F852
:103ED800902022F08051D4F880200A43C0F8902026
:103EE800012E0BD0B3F1007F08D0012D40F08C815A
:103EF80023E100BF0038024000700040C84E33681C
:103F080023F080633360FFF7E9F907463368DFF889
:103F180010E31A0105D5FFF7E1F9C01B6428F5D9AC
:103F2800D6E62768FB073CD5636BD3BBDEF8840075
:103F38004FF4403898FAA8F94FF07066B9FA89F941
:103F4800DEF8842096FAA6FC47F6C07ABCFA8CFC08
:103F58009AFAAAFABAFA8AFA98FAA8F8B8FA88F885
:103F680096FAA6F64FF0E043B6FA86F693FAA3F36C
:103F7800B3FA83FB6168A36800F4403001FA0AF1E0
:103F880002F0706203FA0BF320FA09F022FA0CF23D
:103F98000B4300FA08F1194302FA06F30B43CEF873
:103FA80084303E0303D5E36BB3F5801F05D0F802D8
:103FB80049D5236CB3F5800F45D1DFF864E24FF49F
:103FC8004038DEF8840098FAA8F94FF0E046B9FACC
:103FD80089F9DEF8842096FAA6FC47F6C07BBCFA7D
:103FE8008CFC9BFAABFBBBFA8BFB98FAA8F84FF05A
:103FF8007063B8FA88F893FAA3F3B3FA83FA96FAD7
:10400800A6F6636800F4403002F0E042B6FA86F69D
:1040180003FA0BF1E36820FA09F022FA0CF203FA2A
:104028000AF30B4300FA08F1194302FA06F30B43AB
:10403800CEF88430DEF88C30626A23F01F03013A30
:104048001343CEF88C30F9013CD5DFF8D4E14FF0BA
:104058007068DEF8840098FAA8F94FF0E046B9FADB
:1040680089F9DEF8842096FAA6FC47F6C07BBCFAEC
:104078008CFC9BFAABFB4FF44033BBFA8BFB93FAF7
:10408800A3F3B3FA83FA98FAA8F8B8FA88F896FA74
:10409800A6F6636800F0706002F0E042B6FA86F6B1
:1040A80003FA0BF1236920FA09F022FA0CF203FA59
:1040B8000AF30B4300FA08F1194302FA06F30B431B
:1040C800CEF88430BA0126D547F6C07E9EFAAEFEF9
:1040D8004FF44030BEFA8EFE90FAA0F04FF07062B6
:1040E800B0FA80F792FAA2F24FF0E043B2FA82F601
:1040F80093FAA3F3B3FA83F120696368E268B840DE
:1041080003FA0EF3B24003431A43A3688B401343E8
:10411800434AC2F88430424E336843F080633360C8
:10412800FFF7DCF8074633681B013FF5DEAEFFF703
:10413800D5F8C01B6428F6D9CAE5394D2B6823F099
:1041480080532B60FFF7CAF806462B689F005DD4A2
:1041580025682E0360D4E80264D4A90200F1AD807A
:104168002A0745D52E4F4FF07065D7F8882095FA65
:10417800A5FC4FF44036BCFA8CFCD7F8880096FAB8
:10418800A6F847F6C079B8FA88F899FAA9F9B9FAF9
:1041980089F996FAA6F6B6FA86F695FAA5F54FF0D5
:1041A800E04EB5FA85F59EFAAEFE6369BEFA8EFE5C
:1041B80000F4403002F0706203FA09F1E36920FA72
:1041C80008F022FA0CF203FA0EFE02FA05F341EAAD
:1041D8000E0E00FA06F14EEA01010B43C7F88830CB
:1041E800D7F88C3023F44032E36A1343C7F88C3095
:1041F8000B4C236843F080532360FFF76FF80546A4
:1042080023689B0040F19C800020A0E0FFF766F83F
:10421800801B642899D95BE5E36B33B19BE700BF4A
:1042280000380240236C002B97D14A4F4FF4403C92
:10423800D7F888009CFAACF94FF0E046B9FA89F94A
:10424800D7F8882096FAA6FE47F6C07ABEFA8EFE00
:104258009AFAAAFABAFA8AFA9CFAACFC4FF0706891
:10426800BCFA8CFC98FAA8F8B8FA88F896FAA6F678
:10427800A16900F44030636902F0E04201FA08F8ED
:1042880020FA09F003FA0AF322FA0EF2B6FA86F6D1
:1042980000FA0CF143EA0803194302FA06F30B4348
:1042A800C7F88830D7F88C30A26A23F4F853013A5B
:1042B80043EA0223C7F88C304FE7E36FB3F1006F8E
:1042C8007FF44EAF234F4FF0706CD7F888009CFAFC
:1042D800ACF94FF0E046B9FA89F9D7F8882096FA90
:1042E800A6FE47F6C07ABEFA8EFE9AFAAAFA4FF4EC
:1042F8004038BAFA8AFA98FAA8F8B8FA88F89CFA0C
:10430800ACFCBCFA8CFC96FAA6F6216A00F0706048
:10431800636902F0E04201FA08F820FA09F003FAAA
:104328000AF3B6FA86F600FA0CF122FA0EF243EA1C
:104338000803194302FA06F30B43C7F888300FE75E
:10434800FEF7CCFF401B64287FF65AAFC0E403B0E9
:10435800BDE8F08F003802402DE9F743224C0126D2
:10436800224D4FF000081027214681464FF6FF7274
:104378002846CDF80480A660C4F80C8084E8C00004
:1043880001F05CF83046FCF7F5F8022321464FF6B9
:10439800FF722846A660C4F80C8084E8880001F003
:1043A8004DF8032321464FF6FF722846C4F80C80C7
:1043B80084E888000823A36001F040F84FF40873EC
:1043C8004FF6FF722146284601930423A66084E82D
:1043D8008800019BE36001F031F84946284601F066
:1043E80044F803B0BDE8F083D08200203883002071
:1043F80070B5594B8EB0002506460EAC574801954E
:104408009A6B42F001029A639A6B02F001020192E0
:10441800019A02951A6B42F480021A631A6B02F42D
:1044280080020292029A03951A6B42F004021A6300
:104438001A6B02F004020392039A04951A6B42F075
:1044480008021A631A6B02F008020492049A05958E
:104458001A6B42F010021A631A6B02F010020592EE
:10446800059A06951A6B42F020021A631A6B02F03D
:1044780020020692069A07951A6B42F040021A63C8
:104488001A6B02F040020792079A08951A6B42F0DD
:1044980080021A6301221B6B0B9203F080030893BE
:1044A800089B02230A930C930C230D93082344F8CA
:1044B800143D2146FEF718FF4CF20B73214628489D
:1044C8000993FEF711FF4FF6837321462548099398
:1044D800FEF70AFF4FF63F03214623480993FEF7EC
:1044E80003FF48F23313214620480993FEF7FCFEE8
:1044F800282321461E481F4C0993FEF7F5FE80230A
:10450800256320463463A3604FF400736560E3605D
:104518004FF48063E56123614FF480536562636102
:104528004FF48043E562A3614FF40033A66323622E
:104538000323A362104B236000F03CFF204600F0E9
:10454800FFFE2A4605213820FEF7E6FF3820FFF750
:104558001BF80EB070BD00BF0038024000080240D2
:10456800000C0240001002400014024000180240F3
:10457800001C0240E08200201064024038B51A4C4A
:1045880007211A4B04221A4D204623600223696032
:104598002B602B616B61AB611023E9600021236103
:1045A8004023616063614FF48073A160A3614FF49D
:1045B8000063E26023624FF48053E1616362A162A9
:1045C800AA60FFF715FF2046294600F017FF094C9F
:1045D80010B10123237000E0207040F20360FFF760
:1045E800BBFE207838BD00BF38830020400100A002
:1045F8006C8300200C0000200D4B10B51880702033
:104608000C4B0D4C198023689847636870209847B5
:1046180051280BD1094B702008221C60084B1870D8
:10462800084B1A70E3689847002010BD032010BD9E
:10463800B0830020B483002010000020B88300203D
:10464800B2830020B383002037B5154B02A900249C
:104658000546187841F8044D00F048FB01981828E1
:1046680013D006D810280CD014280CD0A8B9A862EA
:1046780014E040280BD049280BD01C280DD1042366
:1046880008E0012306E0022304E0032302E00523F7
:1046980000E00623AB62204600E0012003B030BDF5
:1046A800B28300202DE9F04F544D95B00024544EAC
:1046B8002B6881460594B246069407941B693078A6
:1046C8009847039589F80000002800F094804D462B
:1046D8000EAE0DF144084F46DFF82CB199F80030C2
:1046E8009C4280F08580039B42469AF80000314640
:1046F8001B685B699847434B0BA9DFF818C11A7808
:1047080008AB012A01BF308823F81400B8F800006C
:1047180021F81400900742BF3088C0F5805023F874
:104728001400500742BFB8F80000C0F5805021F8C7
:104738001400120742BF328821F81420B8F800206C
:1047480031F8141048BF23F81420A20033F814E0FD
:104758002D4B53F8240052F80C3086458CBFC0EB23
:104768000E00CEEB0000994280B28CBFCB1A5B1AC8
:104778009BB203449AF80000052BC4BF4BF802E033
:104788004CF80210702803D1A7F802E0B9810DE0B7
:104798001E4B19885BF802304B431B0B7B801C4B6C
:1047A80019885CF802304B431B0BBB8107AB05AA89
:1047B8002146009306AB00F0A9FA059BAB75069B52
:1047C80085F82030079B032B0BD8DFE803F00204A1
:1047D8000608012304E0022302E0032300E000238B
:1047E800EB76013401350237023608F1020875E725
:1047F8004846FFF729FF15B0BDE8F08FB8830020C1
:10480800B2830020B38300209C830020B083002063
:10481800B48300208883002070B58AB0064600F073
:1048280075FD002840F097804C4B00254C4C9E426B
:10483800B56035610CBF4B4A4B4A9E427561326088
:104848004A4AF56172604FF001023562F2603ED16A
:10485800019505A9236B464843F080032363236B26
:10486800079503F080030193019B8023059312238E
:1048780006930223089304230993FEF735FD4FF4AA
:10488800807305A93A480593FEF72EFD02952A463E
:10489800236C0521482043F400032364236C03F4AC
:1048A80000030293029B236A43F400032362236AF2
:1048B80023F400032362FEF72FFE4820FEF764FE70
:1048C80049202A460521FEF727FE49203EE00395A8
:1048D80005A9236B274843F002032363236B07953D
:1048E80003F002030393039B4FF480730593122391
:1048F80006930223089304230993FEF7F5FC4FF46B
:10490800007305A91B480593FEF7EEFC04952A469B
:10491800236C05211F2043F400132364236C03F444
:1049280000130493049B236A43F400132362236A4D
:1049380023F400132362FEF7EFFD1F20FEF724FE89
:1049480020202A460521FEF7E7FD2020FEF71CFE61
:10495800304600F051FB0AB070BD00BFBC83002098
:1049680000380240005C004000540040322791406B
:10497800001C02400004024030B54FF47A7485B040
:1049880005460294BDF824400194089C009400F068
:1049980027FC044628B1284600F07AFB2846FFF792
:1049A8003BFF204605B030BD30B54FF47A7485B072
:1049B80005460294BDF824400194089C009400F038
:1049C8007DFB044628B1284600F062FB2846FFF725
:1049D80023FF204605B030BD30B5044687B0D0B9B6
:1049E8000E4B0225009001A91A6B0D4842F4807203
:1049F8001A631B6B019503F480730093009B0123DA
:104A08000293039303230493FEF76EFC2246294680
:104A18000348FEF759FD07B030BD00BF003802401B
:104A28000020024020B9012202210248FEF74CBDB5
:104A3800704700BF00200240024618B90221024810
:104A4800FEF742BD704700BF002002400148FFF753
:104A5800E3BE00BFBC8300201FB504AC012304F8EB
:104A6800012D0A460146019300940248FFF79CFF76
:104A780004B010BDBC8300201FB5002304AA02F8AF
:104A8800013D01238DE80C000A4601460348FFF763
:104A980073FF9DF80F0005B05DF804FBBC83002090
:104AA800FBF768BD10B5034C236813B9FCF736FF54
:104AB800206010BDFC8300200F4A1368B3F57A7F8D
:104AC80001DC013315E0002313600C4A1368B3F5C9
:104AD8007A7F84BF4FF47A731360642311684B4361
:104AE8004FF47A71B3FBF1F30549C3F164030B602A
:104AF80000231360704700BFF8830020048400205F
:104B08000C84002008B5FCF709FF044B1B6883429E
:104B180003D1FCF721FC024B186008BDFC83002080
:104B28000884002008B5FCF7F9FE084B1B6883428F
:104B38000AD1FCF711FC064B1B68C01A054B18601C
:104B4800054B1A681044186008BD00BFFC8300209C
:104B5800088400200084002004840020002070477E
:104B68007047000037B500230F4C05468DF8073015
:104B780023781BB9FFF76AFF012323700324EDB2E2
:104B8800013CA8212846FFF777FF14F0FF048DF8B1
:104B980007009DF80730DBB201D0512BF0D19DF80A
:104BA800070003B030BD00BF1284002013B50024F5
:104BB8000221C0B28DF80740FFF75EFF8DF80700AD
:104BC8009DF8073003F00F038DF807309DF8073084
:104BD800052B01D98DF807409DF80720034B9DF858
:104BE80007005A7000229A7002B010BD128400208B
:104BF8002DE9F74F294D904600248946AB786A780D
:104C08008DF807409A4245D9092B0AD8244AD15C25
:104C1800244A12F803B0244A12F803A0234AD45CA9
:104C280002E0A246A3462146C7B2214E3846FFF706
:104C380023FF8DF807009DF8073059463846338022
:104C4800FFF71AFF8DF8070051469DF807303846E0
:104C580003F00F02338843EA0223A9F800303380B7
:104C6800FFF70AFF8DF8070021469DF80730384600
:104C78003380FFF701FF8DF807009DF8073003F038
:104C88000F02338843EA02233380A8F80030AB7858
:104C98000133AB7003B0BDE8F08F00BF1284002071
:104CA8005E4A0608684A0608724A06087C4A0608E8
:104CB800108400200122A421C0B2FFF7CDBE00223B
:104CC800A421C0B2FFF7C8BEFFF7F9BF70470000C4
:104CD80010B5054CC820FFF7E3FE23781BB9FFF792
:104CE800B5FE0123237010BD12840020002313B5E4
:104CF8000C46C0B201218DF80730FFF7BDFE8DF8D4
:104D080007009DF80730236002B010BD2DE9F3417C
:104D18001F461C4B002490465B788DF807408B4259
:104D28002DD90929C5B296BF174A2346174B2846DD
:104D380097BF565C26465B5C154A98BF545C19467B
:104D4800FFF79AFE8DF807009DF807102846089B84
:104D5800890919603146FFF78FFE8DF807009DF825
:104D6800073021462846C8F80030FFF785FE8DF841
:104D780007009DF8072002F0400212093A6002B0CD
:104D8800BDE8F08112840020904A0608864A060889
:104D98009A4A060830B50568C1F30901054C6868E8
:104DA80004400398204303430B4343EA02426A60EA
:104DB80030BD00BF009800FC70B504460D46FEF7F4
:104DC8008DFA06462368986910F010000BD170BD63
:104DD8009A69910611D4681CFAD035B1FEF77EFAAB
:104DE800801B854201D32368F2E70123032084F85E
:104DF8003530002384F8343070BD1022DA61202267
:104E0800DA619A69D20701D40122DA61596801206E
:104E1800054A0A405A600423A363002384F8350036
:104E280084F8343070BD00BF00E800FE2DE9F04181
:104E3800904604460E461D46FEF750FA0746B8F15E
:104E4800000F29D122689369DB43C3F3100333426F
:104E580010D0691CF7D08DB1FEF740FAC01B85420F
:104E6800F0D20BE06B1C08D19369DB43C3F310034A
:104E78003342F7D00020BDE8F08145B90123032073
:104E880084F83530002384F83430BDE8F081FEF72B
:104E980025FAC01B8542F1D32268E5E770B50446C0
:104EA8000D46FEF71BFA064623689B699B0719D433
:104EB80029462046FFF780FFB0B96A1CF4D05DB9D7
:104EC800A36B032043F02003A363012384F8353048
:104ED800002384F8343070BDFEF700FA801B854249
:104EE800E2D2EDE7002070BD012070BD73B51E460B
:104EF8004FF40053044615460093F2B24FF0807306
:104F0800FFF748FF06992046FFF7C8FF20B1A36BBB
:104F1800042B0DD1012017E0012E23680AD1EDB230
:104F28000022802120469D62069BFFF77FFF58B133
:104F3800032009E02A0A069920469A62FFF7AEFF85
:104F48000028E4D12368EAE702B070BD73B51E46B5
:104F58004FF40053044615460093F2B20023FFF7BE
:104F680019FF06992046FFF799FF20B1A36B042B80
:104F78000DD1012017E0012E23680AD1EDB20022DD
:104F8800402120469D62069BFFF750FF58B1032041
:104F980009E02A0A069920469A62FFF77FFF00284F
:104FA800E4D12368EAE702B070BD70B504460D4647
:104FB800FEF794F9064623689B699B0617D4294691
:104FC8002046FFF7F9FEA0B95DB9A36B032043F0B3
:104FD8002003A363012384F83530002384F8343098
:104FE80070BDFEF77BF9801B8542E4D2EDE7002017
:104FF80070BD012070BD704710B50446002844D02C
:1050080090F8353003F0FF021BB980F83420FFF721
:10501800F2FF0223E16884F8353023681A6822F029
:1050280001021A60626822F070621A619A6822F4BA
:1050380000429A60A26842B1012903D142F40042B9
:105048009A6007E042F404429A60022902D14FF4C0
:1050580000625A605A680020216942F0007242F4E6
:1050680000425A6062690A43A16942EA0122E16981
:10507800DA60226A0A431A601A6842F001021A606A
:105088000123A06384F8353010BD012010BD70479E
:1050980010B5044680B10268022380F835301368E1
:1050A80023F001031360FFF7F2FF0020A06384F8E8
:1050B800340084F8350010BD012010BD2DE9F347F8
:1050C80090F8355004468946DDF82880EDB2BDF8E1
:1050D8002C60DDF830A0012D7BD1B8F1000F01D193
:1050E800012077E0002EFBD00768BF6917F400475E
:1050F8006FD190F834E0BEF1010F6AD04FF0520E34
:1051080080F8345080F835E08763CDF800A0FFF7C9
:10511800EDFE18B1A36B84F8347040E0FF2E0090C8
:105128000AD9FF254FF08073FF2249462046FFF732
:1051380031FE08F1FF3823E04FF00073F2B2494620
:105148002046FFF727FE3546F3E72368013E18F8A7
:10515800012F013DB6B29A6219D1D6B153462A46FB
:1051680080212046FFF762FED8B9FF2E00951AD994
:10517800FF254FF08073FF2249462046FFF70AFEBD
:1051880051462046FFF78AFE0028DED006E0002EB2
:10519800F6D119212046FFF708FF68B1A36B042B4D
:1051A8009ED0032016E04FF00073F2B24946204625
:1051B800FFF7F0FD3546E3E723682022DA61074A66
:1051C80059680A405A60012384F8340084F835305D
:1051D80000E0022002B0BDE8F08700BF00E800FE52
:1051E8002DE9F34790F8355004468946DDF82880C4
:1051F800EDB2BDF82C60DDF830A0012D7FD1B8F1FB
:10520800000F01D101207BE0002EFBD00768BF69A9
:1052180017F4004773D190F834E0BEF1010F6ED057
:105228004FF0620E80F8345080F835E08763CDF88F
:1052380000A0FFF78BFE18B1A36B84F834704DE023
:105248004FF41053FF2E00930AD9FF254FF08073B7
:10525800FF2249462046FFF79DFD08F1FF3823E06D
:105268004FF00073F2B249462046FFF793FD3546EA
:10527800F3E72368013E013D5B6AB6B208F8013FD7
:1052880024D12EB353462A4680212046FFF7CEFD6F
:1052980030BBFF2E009510D9FF254FF08073FF22F9
:1052A80049462046FFF776FD534600220421204652
:1052B800FFF7BCFD0028DCD012E04FF00073F2B21B
:1052C80049462046FFF766FD3546EDE7002EEBD14F
:1052D80019212046FFF769FE20B1A36B042B91D05A
:1052E80003200DE023682022DA61074A59680A4042
:1052F8005A60012384F8340084F8353000E0022035
:1053080002B0BDE8F08700BF00E800FE90F8350065
:105318007047000003681821DAB223F47F73103A4B
:1053280023F00303B2FBF1F20449032A895C88BF26
:10533800043341650365006D704700BFA44A060841
:1053480038B50446002831D001680223184A80F88D
:1053580035300B6840681A40A3681843E36818435F
:105368002369184363691843A3691843E369184319
:10537800236A03431343626A042A01BF206BE56A68
:1053880028430343042A20460B604B6923F0070394
:1053980043EA020304BFA26A13434B61FFF7BAFF53
:1053A80000200123E06484F8353038BD012038BD81
:1053B8003F8010F038B50546E8B190F83530022B3B
:1053C80019D0036800241A6822F001021A60212209
:1053D8001C605C609C60DC601C615A61FFF79AFF8E
:1053E8006A6D3F23934083602046EC6485F834401F
:1053F80085F8354038BD012038BD704738B50D46B1
:105408000446C8B190F82C3003F0FF021BB980F8AD
:105418002D20FFF7F2FF0223211D206884F82C308D
:1054280000F035F862682946206800F073F8012317
:10543800002084F82C3038BD012038BD38B504462A
:1054480090F82C000D46C0B202280DD00223206827
:1054580084F82C3000F0A9F82B680020022B0CBF30
:105468000523012384F82C3038BD10B5044690F884
:105478002C00C0B2022809D00223206884F82C30FE
:1054880000F0B9F80123002084F82C3010BD0B6817
:105498000A6A012B8B682DE9F047D1F804E0CF6840
:1054A8000E694D698C69D1F81CA0D1F82490016867
:1054B80013D04EEA030E21F4FF484EEA070728F0FE
:1054C8007F083E4335432C4344EA0A010A4342EA33
:1054D800090343EA0803036019E04EEA030E21F4C6
:1054E800FF4C4AEA02024EEA07072CF07F0C42EA18
:1054F800090942683E4349EA0C0122F4FF4C35434E
:105508002CF07F0C01602C4344EA0C04446000201A
:10551800BDE8F087012A4B69CA68D1F818C02DE99F
:10552800F0430E684D688C68D1F810901AD08768DF
:10553800013E013D013C07F07047013A013B37430A
:1055480047EA051646EA042545EA023409F1FF321E
:1055580044EA024141EA03520CF1FF3342EA036391
:1055680083601FE0C16806F1FF3E6F1E661E01F0F2
:10557800704809F1FF35013B013A4EEA08081B055E
:1055880048EA071E43EA02324EEA062747EA05467A
:105598000CF1FF3546EA0565866806F07046C56079
:1055A800324382600020BDE8F083002373B50446CF
:1055B8000193154691E809000343C86843EA40206F
:1055C8008B68013B40EA43130193019B2361FDF77C
:1055D80085FE0646A06910F020000AD06B1CF9D0A1
:1055E8000DB9032005E0FDF779FE801B8542F1D255
:1055F800F7E702B070BD436943EA41014161002009
:1056080070470000704700BF2DE9F04F8FB003903E
:1056180008F0AEFE0346846DC06C089300F03EFEB1
:10562800089B064602906442DB6AC6481D6806F07D
:10563800EFFB089B586B07F06DFA08F0E9FA0CA825
:1056480007F036FD002E00F066816B000026AAB236
:105658000DF128095B429346049308AB0793E5E0F4
:105668009B6D099A1C44BDF92A700CA81568BDF9F0
:105678002E302544B44ADF1B049BADB2ADF8284058
:10568800FB181FFA85F882FB0327ADF82C80A7EBDF
:10569800E37701F079FC099B7A1E9868019200284B
:1056A8004DD09A8802F00301012900F0F180022907
:1056B80040F0DA80D3F800A000F0ABFD099BC0EB06
:1056C8000A009A8800EBD0704FEA600A02F00C02D8
:1056D800042A00F0D0800C2A40F0C480BDF92E20A6
:1056E800BDF92A109868531A0133059300F0A3FDF9
:1056F800059B181A00EBD07043104846069301F03A
:1057080043FC099A09A89268059208F03FFE079899
:1057180008F03CFE059A03991046069B04EB0A0222
:1057280000F05EFD039808F023FE03463146C06C86
:10573800089300F0D5FD0990002001F025FC6FF0DA
:105748007F4007F02EFABDF92A10BDF92E20053149
:10575800BDF92C00053A07F0A1FDBDF92C00BDF9F3
:105768002A100130BDF92E2007F098FDBDF92C0054
:10577800BDF92A10BDF92E2002300531053A07F08F
:105788008DFD724B724A1B68BDF828005B44116896
:10579800BDF82C209BB25944BDF82AE003EB000C5D
:1057A800D31A89B200B2ADF828C012B2BDF82EC023
:1057B800ADF82C308E44089B121AC1EB0C01ADF8E1
:1057C8002AE0D86B1444ADF82E1006F029FB089B8C
:1057D8001B6EB3423AD04FF0000ABDF82C300220BD
:1057E800CAEB0303ADF82C3007F084F9099B49464E
:1057F800B3F9042003F10C0007F0DDFF089ABDF8A7
:105808002C30116E53448E42ADF82C3049D0936E33
:10581800B34204D9936D0135E41AADF8305009A8A4
:10582800013608F0B3FD029B9E4278D0089B3146B2
:10583800D86C00F055FD0990484607F039FC089BE4
:105848009A6EB2423FF60CAF00230AE7099B9B8889
:1058580003F00303012BBED1019B5B0001331FFA48
:1058680083FABAE7002348E702F00C024FF0000A77
:10587800042A7FF430AFBDF92E20BDF92A109868AC
:10588800531A0133059300F0D6FC059B1B1A34E725
:10589800D3F800A000F0BDFC099BC0EB0A0A9A8867
:1058A80014E7106C0FFA88F806F0BAFA0CA801F0A1
:1058B8006BFBA8F10408089B019A5B6EC2EB080217
:1058C8000592002B46D1BDF92E306FF07F40BDF90F
:1058D8002A105B1A4FEA630A07F063F9019B059ADD
:1058E800002B13DBD21BCAF1010301945744134464
:1058F80044469846504608EB0A010AF1010A224636
:1059080007F000FD013CBA45F4D1019C002001F0EC
:105918003BFB089A7BE708AB0DF1280907930020A9
:1059280001F032FB484607F0C3FB40F6FF730798C7
:10593800ADF82840ADF82C3008F028FD0FB0BDE8D0
:10594800F08F00BF39A9DC0056555555B00000202E
:1059580018840020BDF92E306FF07F40BDF92AA0D1
:10596800CAEB030A019B03EB6A0A07F01AF9019BC9
:10597800002BCBDBC7EB0A02CAEB0308C7F1010314
:1059880001941146059AD71890443C460F46504654
:1059980008EB0A020AF1FF3A214607F0B3FC01348A
:1059A800BA45F4D1B1E700BF014B024A1A6070470B
:1059B800AC0000208C35010800B583B008F0D8FC95
:1059C800054A034602A89A6440F8043D08F0DEFC44
:1059D80003B05DF804FB00BFE55900082DE9F04766
:1059E80086B00C4608F0C4FC428E034602AD019016
:1059F800120703C885E80300BDF90870BDF90A60FD
:105A08005ED5B3F93010BDF90E20FF29A2615ED032
:105A1800FE2965D07242794228460DF1180807F030
:105A28002FFA2946019800F097FB019DBDF908302F
:105A3800BDF90C602846D5F84C90F61A00F00CFA1F
:105A48000746284600F016FA019B400806F1010AAD
:105A58005A6D7B1F471D494602FB0AF09F4228BF2B
:105A68001F4606F003FD314958F8143DC7EB0A02FA
:105A7800B1F90050013F596DA8421B6DBDF908E00E
:105A8800C1EB0901B8BF2846666122615045C4F8D8
:105A980000E06760A8BF5046C0EB0A06054603FB56
:105AA80006F006F0E3FC0246E6614046531925621B
:105AB800A260013BE36008F069FC06B0BDE8F0872E
:105AC800B3F93010BDF90C20FF29A261A0D1986963
